{
    "contractName": "kstSale",
    "abi": [
        {
            "inputs": [
                {
                    "internalType": "contract kst",
                    "name": "_tokenContract",
                    "type": "address"
                },
                {
                    "internalType": "uint256",
                    "name": "_tokenPrice",
                    "type": "uint256"
                }
            ],
            "stateMutability": "nonpayable",
            "type": "constructor"
        },
        {
            "anonymous": false,
            "inputs": [
                {
                    "indexed": false,
                    "internalType": "address",
                    "name": "_buyer",
                    "type": "address"
                },
                {
                    "indexed": false,
                    "internalType": "uint256",
                    "name": "_amount",
                    "type": "uint256"
                }
            ],
            "name": "Sell",
            "type": "event"
        },
        {
            "inputs": [
                {
                    "internalType": "uint256",
                    "name": "_numberOfTokens",
                    "type": "uint256"
                }
            ],
            "name": "buyTokens",
            "outputs": [],
            "stateMutability": "payable",
            "type": "function"
        },
        {
            "inputs": [
                {
                    "internalType": "address payable",
                    "name": "admin",
                    "type": "address"
                }
            ],
            "name": "endSale",
            "outputs": [],
            "stateMutability": "payable",
            "type": "function"
        },
        {
            "inputs": [],
            "name": "tokenContract",
            "outputs": [
                {
                    "internalType": "contract kst",
                    "name": "",
                    "type": "address"
                }
            ],
            "stateMutability": "view",
            "type": "function"
        },
        {
            "inputs": [],
            "name": "tokenPrice",
            "outputs": [
                {
                    "internalType": "uint256",
                    "name": "",
                    "type": "uint256"
                }
            ],
            "stateMutability": "view",
            "type": "function"
        },
        {
            "inputs": [],
            "name": "tokensSold",
            "outputs": [
                {
                    "internalType": "uint256",
                    "name": "",
                    "type": "uint256"
                }
            ],
            "stateMutability": "view",
            "type": "function"
        }
    ],
    "bytecode": "608060405234801561001057600080fd5b506040516105d03803806105d083398101604081905261002f91610066565b60008054336001600160a01b031991821617909155600180549091166001600160a01b0393909316929092179091556002556100a0565b6000806040838503121561007957600080fd5b82516001600160a01b038116811461009057600080fd5b6020939093015192949293505050565b610521806100af6000396000f3fe60806040526004361061004a5760003560e01c80633610724e1461004f578063518ab2a81461006457806355a373d61461008d5780637ff9b596146100c55780638c9f7b39146100db575b600080fd5b61006261005d36600461044a565b6100ee565b005b34801561007057600080fd5b5061007a60035481565b6040519081526020015b60405180910390f35b34801561009957600080fd5b506001546100ad906001600160a01b031681565b6040516001600160a01b039091168152602001610084565b3480156100d157600080fd5b5061007a60025481565b6100626100e93660046103f8565b61026b565b6100fa816002546103c5565b341461010557600080fd5b6001546040516370a0823160e01b815230600482015282916001600160a01b0316906370a082319060240160206040518083038186803b15801561014857600080fd5b505afa15801561015c573d6000803e3d6000fd5b505050506040513d601f19601f820116820180604052508101906101809190610463565b101561018b57600080fd5b60015460405163a9059cbb60e01b8152336004820152602481018390526001600160a01b039091169063a9059cbb90604401602060405180830381600087803b1580156101d757600080fd5b505af11580156101eb573d6000803e3d6000fd5b505050506040513d601f19601f8201168201806040525081019061020f9190610428565b61021857600080fd5b806003600082825461022a919061047c565b909155505060408051338152602081018390527f5e5e995ce3133561afceaa51a9a154d5db228cd7525d34df5185582c18d3df09910160405180910390a150565b336001600160a01b0382161461028057600080fd5b6001546040516370a0823160e01b81523060048201526001600160a01b039091169063a9059cbb90839083906370a082319060240160206040518083038186803b1580156102cd57600080fd5b505afa1580156102e1573d6000803e3d6000fd5b505050506040513d601f19601f820116820180604052508101906103059190610463565b6040516001600160e01b031960e085901b1681526001600160a01b0390921660048301526024820152604401602060405180830381600087803b15801561034b57600080fd5b505af115801561035f573d6000803e3d6000fd5b505050506040513d601f19601f820116820180604052508101906103839190610428565b61038c57600080fd5b6040516001600160a01b038216904780156108fc02916000818181858888f193505050501580156103c1573d6000803e3d6000fd5b5050565b60008115806103e9575082826103db81836104b6565b92506103e79083610494565b145b6103f257600080fd5b92915050565b60006020828403121561040a57600080fd5b81356001600160a01b038116811461042157600080fd5b9392505050565b60006020828403121561043a57600080fd5b8151801515811461042157600080fd5b60006020828403121561045c57600080fd5b5035919050565b60006020828403121561047557600080fd5b5051919050565b6000821982111561048f5761048f6104d5565b500190565b6000826104b157634e487b7160e01b600052601260045260246000fd5b500490565b60008160001904831182151516156104d0576104d06104d5565b500290565b634e487b7160e01b600052601160045260246000fdfea264697066735822122065fd99620e1849888885ac08fad5cdb314e2d7fe081b35bea1b7c7b6c4f3f96b64736f6c63430008050033",
    "sourcePath": "c:/Users/Karan/cryptocurrency/contracts/kstSale.sol",
    "compiler": {
        "name": "solc",
        "version": "0.8.5+commit.a4f2e591"
    },
    "functionHashes": {
        "buyTokens(uint256)": "3610724e",
        "endSale(address)": "8c9f7b39",
        "tokenContract()": "55a373d6",
        "tokenPrice()": "7ff9b596",
        "tokensSold()": "518ab2a8"
    },
    "gasEstimates": {
        "creation": {
            "codeDepositCost": "262600",
            "executionCost": "infinite",
            "totalCost": "infinite"
        },
        "external": {
            "buyTokens(uint256)": "infinite",
            "endSale(address)": "infinite",
            "tokenContract()": "2359",
            "tokenPrice()": "2328",
            "tokensSold()": "2284"
        },
        "internal": {
            "multiply(uint256,uint256)": "227"
        }
    }
}